{
  "contractName": "Campaign",
  "abi": [
    {
      "inputs": [
        {
          "components": [
            {
              "internalType": "string",
              "name": "title",
              "type": "string"
            },
            {
              "internalType": "string",
              "name": "description",
              "type": "string"
            },
            {
              "internalType": "uint64",
              "name": "deadlineDate",
              "type": "uint64"
            },
            {
              "internalType": "uint128",
              "name": "fundingGoal",
              "type": "uint128"
            }
          ],
          "internalType": "struct ICampaign.Info",
          "name": "_infoData",
          "type": "tuple"
        },
        {
          "components": [
            {
              "internalType": "string",
              "name": "title",
              "type": "string"
            },
            {
              "internalType": "string",
              "name": "description",
              "type": "string"
            },
            {
              "internalType": "bool",
              "name": "isStockLimited",
              "type": "bool"
            },
            {
              "internalType": "uint16",
              "name": "stockLimit",
              "type": "uint16"
            },
            {
              "internalType": "uint64",
              "name": "nbContributors",
              "type": "uint64"
            },
            {
              "internalType": "uint128",
              "name": "minimumContribution",
              "type": "uint128"
            },
            {
              "internalType": "uint128",
              "name": "amount",
              "type": "uint128"
            }
          ],
          "internalType": "struct ICampaign.Rewards[]",
          "name": "_rewardsData",
          "type": "tuple[]"
        },
        {
          "internalType": "address",
          "name": "_manager",
          "type": "address"
        },
        {
          "internalType": "contract IERC20",
          "name": "_usdcToken",
          "type": "address"
        },
        {
          "internalType": "address",
          "name": "_escrowContract",
          "type": "address"
        },
        {
          "internalType": "address",
          "name": "_factory",
          "type": "address"
        }
      ],
      "stateMutability": "nonpayable",
      "type": "constructor"
    },
    {
      "inputs": [
        {
          "internalType": "address",
          "name": "",
          "type": "address"
        }
      ],
      "name": "contributorBalances",
      "outputs": [
        {
          "internalType": "uint128",
          "name": "",
          "type": "uint128"
        }
      ],
      "stateMutability": "view",
      "type": "function"
    },
    {
      "inputs": [],
      "name": "createAt",
      "outputs": [
        {
          "internalType": "uint64",
          "name": "",
          "type": "uint64"
        }
      ],
      "stateMutability": "view",
      "type": "function"
    },
    {
      "inputs": [],
      "name": "escrowContract",
      "outputs": [
        {
          "internalType": "address",
          "name": "",
          "type": "address"
        }
      ],
      "stateMutability": "view",
      "type": "function"
    },
    {
      "inputs": [],
      "name": "factory",
      "outputs": [
        {
          "internalType": "address",
          "name": "",
          "type": "address"
        }
      ],
      "stateMutability": "view",
      "type": "function"
    },
    {
      "inputs": [],
      "name": "manager",
      "outputs": [
        {
          "internalType": "address",
          "name": "",
          "type": "address"
        }
      ],
      "stateMutability": "view",
      "type": "function"
    },
    {
      "inputs": [],
      "name": "proposal",
      "outputs": [
        {
          "internalType": "address",
          "name": "",
          "type": "address"
        }
      ],
      "stateMutability": "view",
      "type": "function"
    },
    {
      "inputs": [
        {
          "internalType": "uint8",
          "name": "",
          "type": "uint8"
        },
        {
          "internalType": "address",
          "name": "",
          "type": "address"
        }
      ],
      "name": "rewardToContributor",
      "outputs": [
        {
          "internalType": "uint8",
          "name": "",
          "type": "uint8"
        }
      ],
      "stateMutability": "view",
      "type": "function"
    },
    {
      "inputs": [],
      "name": "rewardsCounter",
      "outputs": [
        {
          "internalType": "uint8",
          "name": "",
          "type": "uint8"
        }
      ],
      "stateMutability": "view",
      "type": "function"
    },
    {
      "inputs": [
        {
          "internalType": "uint8",
          "name": "",
          "type": "uint8"
        }
      ],
      "name": "rewardsList",
      "outputs": [
        {
          "internalType": "string",
          "name": "title",
          "type": "string"
        },
        {
          "internalType": "string",
          "name": "description",
          "type": "string"
        },
        {
          "internalType": "bool",
          "name": "isStockLimited",
          "type": "bool"
        },
        {
          "internalType": "uint16",
          "name": "stockLimit",
          "type": "uint16"
        },
        {
          "internalType": "uint64",
          "name": "nbContributors",
          "type": "uint64"
        },
        {
          "internalType": "uint128",
          "name": "minimumContribution",
          "type": "uint128"
        },
        {
          "internalType": "uint128",
          "name": "amount",
          "type": "uint128"
        }
      ],
      "stateMutability": "view",
      "type": "function"
    },
    {
      "inputs": [],
      "name": "status",
      "outputs": [
        {
          "internalType": "enum ICampaign.WorkflowStatus",
          "name": "",
          "type": "uint8"
        }
      ],
      "stateMutability": "view",
      "type": "function"
    },
    {
      "inputs": [],
      "name": "totalRaised",
      "outputs": [
        {
          "internalType": "uint128",
          "name": "",
          "type": "uint128"
        }
      ],
      "stateMutability": "view",
      "type": "function"
    },
    {
      "inputs": [],
      "name": "usdcToken",
      "outputs": [
        {
          "internalType": "contract IERC20",
          "name": "",
          "type": "address"
        }
      ],
      "stateMutability": "view",
      "type": "function"
    },
    {
      "inputs": [],
      "name": "getCampaignInfo",
      "outputs": [
        {
          "components": [
            {
              "internalType": "string",
              "name": "title",
              "type": "string"
            },
            {
              "internalType": "string",
              "name": "description",
              "type": "string"
            },
            {
              "internalType": "uint64",
              "name": "deadlineDate",
              "type": "uint64"
            },
            {
              "internalType": "uint128",
              "name": "fundingGoal",
              "type": "uint128"
            }
          ],
          "internalType": "struct ICampaign.Info",
          "name": "",
          "type": "tuple"
        },
        {
          "internalType": "uint64",
          "name": "",
          "type": "uint64"
        },
        {
          "internalType": "address",
          "name": "",
          "type": "address"
        },
        {
          "internalType": "enum ICampaign.WorkflowStatus",
          "name": "",
          "type": "uint8"
        },
        {
          "internalType": "uint128",
          "name": "",
          "type": "uint128"
        },
        {
          "internalType": "address",
          "name": "",
          "type": "address"
        }
      ],
      "stateMutability": "view",
      "type": "function"
    },
    {
      "inputs": [
        {
          "components": [
            {
              "internalType": "string",
              "name": "title",
              "type": "string"
            },
            {
              "internalType": "string",
              "name": "description",
              "type": "string"
            },
            {
              "internalType": "uint64",
              "name": "deadlineDate",
              "type": "uint64"
            },
            {
              "internalType": "uint128",
              "name": "fundingGoal",
              "type": "uint128"
            }
          ],
          "internalType": "struct ICampaign.Info",
          "name": "_newInfo",
          "type": "tuple"
        }
      ],
      "name": "updateCampaign",
      "outputs": [],
      "stateMutability": "nonpayable",
      "type": "function"
    },
    {
      "inputs": [
        {
          "components": [
            {
              "internalType": "string",
              "name": "title",
              "type": "string"
            },
            {
              "internalType": "string",
              "name": "description",
              "type": "string"
            },
            {
              "internalType": "bool",
              "name": "isStockLimited",
              "type": "bool"
            },
            {
              "internalType": "uint16",
              "name": "stockLimit",
              "type": "uint16"
            },
            {
              "internalType": "uint64",
              "name": "nbContributors",
              "type": "uint64"
            },
            {
              "internalType": "uint128",
              "name": "minimumContribution",
              "type": "uint128"
            },
            {
              "internalType": "uint128",
              "name": "amount",
              "type": "uint128"
            }
          ],
          "internalType": "struct ICampaign.Rewards",
          "name": "newRewardData",
          "type": "tuple"
        }
      ],
      "name": "addReward",
      "outputs": [],
      "stateMutability": "nonpayable",
      "type": "function"
    },
    {
      "inputs": [
        {
          "components": [
            {
              "internalType": "string",
              "name": "title",
              "type": "string"
            },
            {
              "internalType": "string",
              "name": "description",
              "type": "string"
            },
            {
              "internalType": "bool",
              "name": "isStockLimited",
              "type": "bool"
            },
            {
              "internalType": "uint16",
              "name": "stockLimit",
              "type": "uint16"
            },
            {
              "internalType": "uint64",
              "name": "nbContributors",
              "type": "uint64"
            },
            {
              "internalType": "uint128",
              "name": "minimumContribution",
              "type": "uint128"
            },
            {
              "internalType": "uint128",
              "name": "amount",
              "type": "uint128"
            }
          ],
          "internalType": "struct ICampaign.Rewards",
          "name": "_newRewardData",
          "type": "tuple"
        },
        {
          "internalType": "uint8",
          "name": "_rewardIndex",
          "type": "uint8"
        }
      ],
      "name": "updateReward",
      "outputs": [],
      "stateMutability": "nonpayable",
      "type": "function"
    },
    {
      "inputs": [],
      "name": "deleteCampaign",
      "outputs": [],
      "stateMutability": "nonpayable",
      "type": "function"
    },
    {
      "inputs": [
        {
          "internalType": "uint8",
          "name": "_rewardIndex",
          "type": "uint8"
        }
      ],
      "name": "deleteReward",
      "outputs": [],
      "stateMutability": "nonpayable",
      "type": "function"
    },
    {
      "inputs": [
        {
          "internalType": "address",
          "name": "_newManager",
          "type": "address"
        }
      ],
      "name": "updateManager",
      "outputs": [],
      "stateMutability": "nonpayable",
      "type": "function"
    },
    {
      "inputs": [],
      "name": "publishCampaign",
      "outputs": [],
      "stateMutability": "nonpayable",
      "type": "function"
    },
    {
      "inputs": [
        {
          "internalType": "uint128",
          "name": "_amount",
          "type": "uint128"
        },
        {
          "internalType": "uint8",
          "name": "_rewardIndex",
          "type": "uint8"
        }
      ],
      "name": "contribute",
      "outputs": [],
      "stateMutability": "nonpayable",
      "type": "function"
    },
    {
      "inputs": [],
      "name": "refund",
      "outputs": [],
      "stateMutability": "nonpayable",
      "type": "function"
    },
    {
      "inputs": [],
      "name": "launchProposalContract",
      "outputs": [],
      "stateMutability": "nonpayable",
      "type": "function"
    },
    {
      "inputs": [
        {
          "internalType": "address",
          "name": "_proposalContract",
          "type": "address"
        }
      ],
      "name": "setProposal",
      "outputs": [],
      "stateMutability": "nonpayable",
      "type": "function"
    },
    {
      "inputs": [
        {
          "internalType": "uint128",
          "name": "_amount",
          "type": "uint128"
        }
      ],
      "name": "releaseProposalFunds",
      "outputs": [],
      "stateMutability": "nonpayable",
      "type": "function"
    },
    {
      "inputs": [],
      "name": "getContractUSDCBalance",
      "outputs": [
        {
          "internalType": "uint128",
          "name": "",
          "type": "uint128"
        }
      ],
      "stateMutability": "view",
      "type": "function"
    },
    {
      "inputs": [
        {
          "internalType": "address",
          "name": "_account",
          "type": "address"
        }
      ],
      "name": "getContributorBalances",
      "outputs": [
        {
          "internalType": "uint128",
          "name": "",
          "type": "uint128"
        }
      ],
      "stateMutability": "view",
      "type": "function"
    }
  ],
  "bytecode": "0x60c06040523480156200001157600080fd5b50604051620036fe380380620036fe8339810160408190526200003491620008fe565b60008551116200008b5760405162461bcd60e51b815260206004820152601360248201527f214572723a205265776172647320656d7074790000000000000000000000000060448201526064015b60405180910390fd5b600a85511115620000df5760405162461bcd60e51b815260206004820152601660248201527f214572723a20546f6f206d756368205265776172647300000000000000000000604482015260640162000082565b600180546001600160a01b038681166001600160a01b0319928316179092556002805492841692909116919091179055600080546001600160401b03421661010002610100600160481b03199091161790556003805460ff60a01b191690556001600160601b0319606084811b821660805283901b1660a0526200016386620001db565b60005b85518160ff161015620001b957620001a481878360ff168151811062000190576200019062000b58565b6020026020010151620003de60201b60201c565b80620001b08162000b1f565b91505062000166565b505092516000805460ff191660ff9092169190911790555062000b8492505050565b805151620002205760405162461bcd60e51b8152602060048201526011602482015270214572723a205469746c6520656d70747960781b604482015260640162000082565b600081602001515111620002775760405162461bcd60e51b815260206004820152601760248201527f214572723a204465736372697074696f6e20656d707479000000000000000000604482015260640162000082565b633b9aca0081606001516001600160801b03161015620002da5760405162461bcd60e51b815260206004820152601d60248201527f214572723a2046756e64696e6720476f616c206e6f7420656e6f756768000000604482015260640162000082565b60408101516000546001600160401b0391821691620003039161010090041662093a8062000ab4565b6001600160401b031611156200035c5760405162461bcd60e51b815260206004820152601b60248201527f214572723a20646561646c696e654461746520746f2073686f72740000000000604482015260640162000082565b805180516200037491600491602090910190620005e1565b5060208082015180516200038d926005920190620005e1565b506060810151600680546040909301516001600160401b03166001600160401b03196001600160801b039093166801000000000000000002929092166001600160c01b031990931692909217179055565b805151620004235760405162461bcd60e51b8152602060048201526011602482015270214572723a205469746c6520656d70747960781b604482015260640162000082565b6000816020015151116200047a5760405162461bcd60e51b815260206004820152601760248201527f214572723a204465736372697074696f6e20656d707479000000000000000000604482015260640162000082565b6040805160e081018252606080825260208083018281526000848601818152848601828152608080880184815260a0808a0186815260c08b018790528c518b528c8901519097528b01516001600160801b03169095529589015161ffff169052938701516001600160401b031690915285850151151590925260ff86168252600781529290208151805192938493620005179284920190620005e1565b506020828101518051620005329260018501920190620005e1565b5060408201516002820180546060850151608086015160a087015162ffffff1990931694151562ffff0019169490941761010061ffff90921691909102176301000000600160d81b03191663010000006001600160401b0390941693909302600160581b600160d81b031916929092176b0100000000000000000000006001600160801b039384160217905560c090920151600390910180546001600160801b03191691909216179055505050565b828054620005ef9062000ae2565b90600052602060002090601f0160209004810192826200061357600085556200065e565b82601f106200062e57805160ff19168380011785556200065e565b828001600101855582156200065e579182015b828111156200065e57825182559160200191906001019062000641565b506200066c92915062000670565b5090565b5b808211156200066c576000815560010162000671565b80516001600160a01b03811681146200069f57600080fd5b919050565b600082601f830112620006b657600080fd5b815160206001600160401b0380831115620006d557620006d562000b6e565b8260051b620006e683820162000a81565b8481528381019087850183890186018a10156200070257600080fd5b600093505b8684101562000808578051858111156200072057600080fd5b890160e0818c03601f19018113156200073857600080fd5b6200074262000a31565b88830151888111156200075457600080fd5b620007648e8b8387010162000826565b825250604080840151898111156200077b57600080fd5b6200078b8f8c8388010162000826565b8b8401525060606200079f81860162000815565b8284015260809150620007b4828601620008d3565b9083015260a0620007c7858201620008e6565b8284015260c09150620007dc828601620008bb565b90830152620007ed848401620008bb565b90820152855250506001939093019291850191850162000707565b5098975050505050505050565b805180151581146200069f57600080fd5b600082601f8301126200083857600080fd5b81516001600160401b0381111562000854576200085462000b6e565b60206200086a601f8301601f1916820162000a81565b82815285828487010111156200087f57600080fd5b60005b838110156200089f57858101830151828201840152820162000882565b83811115620008b15760008385840101525b5095945050505050565b80516001600160801b03811681146200069f57600080fd5b805161ffff811681146200069f57600080fd5b80516001600160401b03811681146200069f57600080fd5b60008060008060008060c087890312156200091857600080fd5b86516001600160401b03808211156200093057600080fd5b908801906080828b0312156200094557600080fd5b6200094f62000a5c565b8251828111156200095f57600080fd5b6200096d8c82860162000826565b8252506020830151828111156200098357600080fd5b620009918c82860162000826565b602083015250620009a560408401620008e6565b6040820152620009b860608401620008bb565b606082015260208a0151909850915080821115620009d557600080fd5b50620009e489828a01620006a4565b955050620009f56040880162000687565b935062000a056060880162000687565b925062000a156080880162000687565b915062000a2560a0880162000687565b90509295509295509295565b60405160e081016001600160401b038111828210171562000a565762000a5662000b6e565b60405290565b604051608081016001600160401b038111828210171562000a565762000a5662000b6e565b604051601f8201601f191681016001600160401b038111828210171562000aac5762000aac62000b6e565b604052919050565b60006001600160401b0382811684821680830382111562000ad95762000ad962000b42565b01949350505050565b600181811c9082168062000af757607f821691505b6020821081141562000b1957634e487b7160e01b600052602260045260246000fd5b50919050565b600060ff821660ff81141562000b395762000b3962000b42565b60010192915050565b634e487b7160e01b600052601160045260246000fd5b634e487b7160e01b600052603260045260246000fd5b634e487b7160e01b600052604160045260246000fd5b60805160601c60a05160601c612b2462000bda6000396000818161042a01526106920152600081816101f4015281816104f3015281816106da01528181610ad70152818161129c015261196d0152612b246000f3fe608060405234801561001057600080fd5b50600436106101a85760003560e01c806372686b17116100f9578063c97c579411610097578063d6290cd711610071578063d6290cd7146103f8578063e21641b814610412578063e42a96e714610425578063fc436cd51461044c57600080fd5b8063c97c5794146103bf578063cd3fea14146103d2578063d0a5d845146103e557600080fd5b806392b4208d116100d357806392b4208d1461033c578063bf1d4cad14610362578063c45a015514610392578063c5c4744c146103a557600080fd5b806372686b171461030e578063753ec103146103215780637ef59f841461033457600080fd5b8063244c3c2c11610166578063481c6a7511610140578063481c6a75146102cd57806358aba00f146102e0578063590e1ae3146102f35780636d2ffd85146102fb57600080fd5b8063244c3c2c1461026e578063287af432146102765780633489eae11461029f57600080fd5b80622772c2146101ad5780630a2d00d3146101d25780630d4c4a2f146101e757806311eac855146101ef578063200d2ed21461022e578063205b09141461024f575b600080fd5b6101b561047e565b6040516001600160801b0390911681526020015b60405180910390f35b6101e56101e03660046125a2565b61048d565b005b6101e5610528565b6102167f000000000000000000000000000000000000000000000000000000000000000081565b6040516001600160a01b0390911681526020016101c9565b60035461024290600160a01b900460ff1681565b6040516101c991906126af565b60005461025c9060ff1681565b60405160ff90911681526020016101c9565b6101e56107b1565b6101b561028436600461242f565b6009602052600090815260409020546001600160801b031681565b61025c6102ad36600461261b565b600860209081526000928352604080842090915290825290205460ff1681565b600154610216906001600160a01b031681565b6101e56102ee36600461242f565b610918565b6101e5610964565b6101e5610309366004612555565b610b06565b6101e561031c36600461242f565b610c08565b600354610216906001600160a01b031681565b6101e5610c54565b61034f61034a366004612600565b610d8b565b6040516101c997969594939291906126d6565b60005461037a9061010090046001600160401b031681565b6040516001600160401b0390911681526020016101c9565b600254610216906001600160a01b031681565b6000546101b590600160481b90046001600160801b031681565b6101e56103cd366004612519565b610ef6565b6101e56103e0366004612467565b610fdd565b6101e56103f33660046125bd565b611092565b61040061145f565b6040516101c9969594939291906127cf565b6101e5610420366004612600565b61167e565b6102167f000000000000000000000000000000000000000000000000000000000000000081565b6101b561045a36600461242f565b6001600160a01b03166000908152600960205260409020546001600160801b031690565b6000610488611955565b905090565b6003546001600160a01b031633146104e25760405162461bcd60e51b815260206004820152601360248201527208515c9c8e881058d8d95cdcc819195b9a5959606a1b60448201526064015b60405180910390fd5b600154610525906001600160a01b037f0000000000000000000000000000000000000000000000000000000000000000811691166001600160801b0384166119ef565b50565b6001546001600160a01b031633146105525760405162461bcd60e51b81526004016104d99061273f565b6005600354600160a01b900460ff16600581111561057257610572612ab4565b14156105905760405162461bcd60e51b81526004016104d99061279f565b600354600160a01b900460ff166002808260058111156105b2576105b2612ab4565b146105cf5760405162461bcd60e51b81526004016104d990612768565b6003546001600160a01b0316156106285760405162461bcd60e51b815260206004820152601f60248201527f214572723a2070726f706f73616c20616c7265616479206465706c6f7965640060448201526064016104d9565b6006546001600160401b0316421161068d5760405162461bcd60e51b815260206004820152602260248201527f214572723a2063616d706169676e20646561646c696e65206e6f742070617373604482015261195960f21b60648201526084016104d9565b61070a7f000000000000000000000000000000000000000000000000000000000000000060646106bb611955565b6106c6906005612980565b6106d0919061294c565b6001600160a01b037f00000000000000000000000000000000000000000000000000000000000000001691906001600160801b03166119ef565b610712611955565b600080546001600160801b0392909216600160481b0278ffffffffffffffffffffffffffffffff00000000000000000019909216919091179055600254600154604051638b89df4f60e01b81526001600160a01b039182166004820152911690638b89df4f90602401600060405180830381600087803b15801561079557600080fd5b505af11580156107a9573d6000803e3d6000fd5b505050505050565b6005600354600160a01b900460ff1660058111156107d1576107d1612ab4565b14156107ef5760405162461bcd60e51b81526004016104d99061279f565b6001546001600160a01b031633146108195760405162461bcd60e51b81526004016104d99061273f565b6000600354600160a01b900460ff16600581111561083957610839612ab4565b1480610861575060038054600160a01b900460ff16600581111561085f5761085f612ab4565b145b8061088957506004600354600160a01b900460ff16600581111561088757610887612ab4565b145b6108a55760405162461bcd60e51b81526004016104d990612768565b6003805460ff60a01b1916600560a01b179055600254604080516309130f0b60e21b815290516001600160a01b039092169163244c3c2c9160048082019260009290919082900301818387803b1580156108fe57600080fd5b505af1158015610912573d6000803e3d6000fd5b50505050565b6001546001600160a01b031633146109425760405162461bcd60e51b81526004016104d99061273f565b600180546001600160a01b0319166001600160a01b0392909216919091179055565b6006546001600160401b03164211801561098e57506000610983611955565b6001600160801b0316115b6109da5760405162461bcd60e51b815260206004820152601860248201527f214572723a20636f6e646974696f6e73206e6f74206d6574000000000000000060448201526064016104d9565b6001600354600160a01b900460ff1660058111156109fa576109fa612ab4565b1480610a22575060038054600160a01b900460ff166005811115610a2057610a20612ab4565b145b610a6e5760405162461bcd60e51b815260206004820152601a60248201527f214572723a2077726f6e6720776f726b666c6f7773746174757300000000000060448201526064016104d9565b6001600354600160a01b900460ff166005811115610a8e57610a8e612ab4565b1415610aa8576003805460ff60a01b1916600360a01b1790555b33600081815260096020526040902080546001600160801b031981169091556001600160801b031690610525907f00000000000000000000000000000000000000000000000000000000000000006001600160a01b031690836119ef565b6005600354600160a01b900460ff166005811115610b2657610b26612ab4565b1415610b445760405162461bcd60e51b81526004016104d99061279f565b6001546001600160a01b03163314610b6e5760405162461bcd60e51b81526004016104d99061273f565b600354600160a01b900460ff16600080826005811115610b9057610b90612ab4565b14610bad5760405162461bcd60e51b81526004016104d990612768565b60005460ff9081169084161115610bfe5760405162461bcd60e51b815260206004820152601560248201527408515c9c8e88125b99195e081b9bdd08195e1a5cdd605a1b60448201526064016104d9565b6109128385611a52565b6002546001600160a01b03163314610c325760405162461bcd60e51b81526004016104d99061273f565b600380546001600160a01b0319166001600160a01b0392909216919091179055565b6005600354600160a01b900460ff166005811115610c7457610c74612ab4565b1415610c925760405162461bcd60e51b81526004016104d99061279f565b6001546001600160a01b03163314610cbc5760405162461bcd60e51b81526004016104d99061273f565b600354600160a01b900460ff16600080826005811115610cde57610cde612ab4565b14610cfb5760405162461bcd60e51b81526004016104d990612768565b600654600090610d189062093a80906001600160401b03166129af565b6001600160401b0316905042811015610d735760405162461bcd60e51b815260206004820152601b60248201527f214572723a20646561646c696e654461746520746f2073686f7274000000000060448201526064016104d9565b50506003805460ff60a01b1916600160a01b17905550565b600760205260009081526040902080548190610da690612a43565b80601f0160208091040260200160405190810160405280929190818152602001828054610dd290612a43565b8015610e1f5780601f10610df457610100808354040283529160200191610e1f565b820191906000526020600020905b815481529060010190602001808311610e0257829003601f168201915b505050505090806001018054610e3490612a43565b80601f0160208091040260200160405190810160405280929190818152602001828054610e6090612a43565b8015610ead5780601f10610e8257610100808354040283529160200191610ead565b820191906000526020600020905b815481529060010190602001808311610e9057829003601f168201915b5050506002840154600390940154929360ff81169361ffff61010083041693506001600160401b03630100000083041692506001600160801b03600160581b9092048216911687565b6005600354600160a01b900460ff166005811115610f1657610f16612ab4565b1415610f345760405162461bcd60e51b81526004016104d99061279f565b6001546001600160a01b03163314610f5e5760405162461bcd60e51b81526004016104d99061273f565b600354600160a01b900460ff16600080826005811115610f8057610f80612ab4565b14610f9d5760405162461bcd60e51b81526004016104d990612768565b600054610fad9060ff1684611a52565b6000805460ff169080610fbf83612a7e565b91906101000a81548160ff021916908360ff16021790555050505050565b6005600354600160a01b900460ff166005811115610ffd57610ffd612ab4565b141561101b5760405162461bcd60e51b81526004016104d99061279f565b6001546001600160a01b031633146110455760405162461bcd60e51b81526004016104d99061273f565b600354600160a01b900460ff1660008082600581111561106757611067612ab4565b146110845760405162461bcd60e51b81526004016104d990612768565b61108d83611c3f565b505050565b6005600354600160a01b900460ff1660058111156110b2576110b2612ab4565b14156110d05760405162461bcd60e51b81526004016104d99061279f565b6006546001600160401b031642106111395760405162461bcd60e51b815260206004820152602660248201527f21457272203a2043616d706169676e20636f6e747269627574696f6e2068617360448201526508195b99195960d21b60648201526084016104d9565b6000600354600160a01b900460ff16600581111561115957611159612ab4565b14158015611184575060038054600160a01b900460ff16600581111561118157611181612ab4565b14155b80156111ae57506004600354600160a01b900460ff1660058111156111ab576111ab612ab4565b14155b6111ca5760405162461bcd60e51b81526004016104d990612768565b60ff81166000908152600760205260409020600201546001600160801b03600160581b909104811690831610156112435760405162461bcd60e51b815260206004820152601760248201527f214572723a20616d6f756e74206e6f7420656e6f75676800000000000000000060448201526064016104d9565b61124c81611e2a565b61128f5760405162461bcd60e51b815260206004820152601460248201527308515c9c8e881b9bc81b5bdc99481c995dd85c9960621b60448201526064016104d9565b6112cd6001600160a01b037f00000000000000000000000000000000000000000000000000000000000000001633306001600160801b038616611e9b565b336000908152600960205260409020546112f19083906001600160801b03166128da565b33600081815260096020908152604080832080546001600160801b0319166001600160801b03969096169590951790945560ff858116835260088252848320938352929052919091205461134791166001612927565b60ff82811660008181526008602090815260408083203384528252808320805460ff191696909516959095179093559081526007909152206002015461139e90630100000090046001600160401b03166001612905565b60ff821660009081526007602052604090206002810180546001600160401b03939093166301000000026affffffffffffffff0000001990931692909217909155600301546113f79083906001600160801b03166128da565b60ff8216600090815260076020526040902060030180546001600160801b0319166001600160801b03928316179055600654600160401b900416611439611955565b6001600160801b03161061145b576003805460ff60a01b1916600160a11b1790555b5050565b6040805160808101825260608082526020820181905260009282018390528101919091526000808080806005600354600160a01b900460ff1660058111156114a9576114a9612ab4565b14156114c75760405162461bcd60e51b81526004016104d99061279f565b600054600154600354604080516080810190915260048054909461010081046001600160401b0316946001600160a01b0390811694600160a01b810460ff1694600160481b9093046001600160801b0316939116919087908290829061152c90612a43565b80601f016020809104026020016040519081016040528092919081815260200182805461155890612a43565b80156115a55780601f1061157a576101008083540402835291602001916115a5565b820191906000526020600020905b81548152906001019060200180831161158857829003601f168201915b505050505081526020016001820180546115be90612a43565b80601f01602080910402602001604051908101604052809291908181526020018280546115ea90612a43565b80156116375780601f1061160c57610100808354040283529160200191611637565b820191906000526020600020905b81548152906001019060200180831161161a57829003601f168201915b5050509183525050600291909101546001600160401b0381166020830152600160401b90046001600160801b03166040909101529c949b5092995090975095509350915050565b6005600354600160a01b900460ff16600581111561169e5761169e612ab4565b14156116bc5760405162461bcd60e51b81526004016104d99061279f565b6001546001600160a01b031633146116e65760405162461bcd60e51b81526004016104d99061273f565b600354600160a01b900460ff1660008082600581111561170857611708612ab4565b146117255760405162461bcd60e51b81526004016104d990612768565b60005460ff908116908416106117755760405162461bcd60e51b815260206004820152601560248201527408515c9c8e88125b99195e081b9bdd08195e1a5cdd605a1b60448201526064016104d9565b60005460ff8085169161178b91600191166129d7565b60ff16146118da5760008054600791906117aa9060019060ff166129d7565b60ff9081168252602080830193909352604091820160009081209187168152600790935291208154819083906117df90612a43565b6117ea92919061211f565b5060018201816001019080546117ff90612a43565b61180a92919061211f565b5060028281018054918301805460ff909316151560ff19841681178255825461ffff61010091829004160262ffff001990911662ffffff19909416939093179290921780835581546001600160401b0363010000009182900416026affffffffffffffff0000001982168117845591546001600160801b03600160581b918290048116909102600160581b600160d81b03199093166301000000600160d81b031990921691909117919091179091556003928301549290910180546001600160801b031916929091169190911790555b60008054600791906118f19060019060ff166129d7565b60ff168152602081019190915260400160009081209061191182826121aa565b61191f6001830160006121aa565b506002810180546001600160d81b031916905560030180546001600160801b03191690556000805460ff169080610fbf83612a26565b6040516370a0823160e01b81523060048201526000907f00000000000000000000000000000000000000000000000000000000000000006001600160a01b0316906370a082319060240160206040518083038186803b1580156119b757600080fd5b505afa1580156119cb573d6000803e3d6000fd5b505050506040513d601f19601f8201168201806040525081019061048891906125e7565b6040516001600160a01b03831660248201526044810182905261108d90849063a9059cbb60e01b906064015b60408051601f198184030181529190526020810180516001600160e01b03166001600160e01b031990931692909217909152611ed3565b805151611a955760405162461bcd60e51b8152602060048201526011602482015270214572723a205469746c6520656d70747960781b60448201526064016104d9565b600081602001515111611ae45760405162461bcd60e51b8152602060048201526017602482015276214572723a204465736372697074696f6e20656d70747960481b60448201526064016104d9565b6040805160e081018252606080825260208083018281526000848601818152848601828152608080880184815260a0808a0186815260c08b018790528c518b528c8901519097528b01516001600160801b03169095529589015161ffff169052938701516001600160401b031690915285850151151590925260ff86168252600781529290208151805192938493611b7f92849201906121e4565b506020828101518051611b9892600185019201906121e4565b5060408201516002820180546060850151608086015160a087015162ffffff1990931694151562ffff0019169490941761010061ffff90921691909102176301000000600160d81b03191663010000006001600160401b0390941693909302600160581b600160d81b03191692909217600160581b6001600160801b039384160217905560c090920151600390910180546001600160801b03191691909216179055505050565b805151611c825760405162461bcd60e51b8152602060048201526011602482015270214572723a205469746c6520656d70747960781b60448201526064016104d9565b600081602001515111611cd15760405162461bcd60e51b8152602060048201526017602482015276214572723a204465736372697074696f6e20656d70747960481b60448201526064016104d9565b633b9aca0081606001516001600160801b03161015611d325760405162461bcd60e51b815260206004820152601d60248201527f214572723a2046756e64696e6720476f616c206e6f7420656e6f75676800000060448201526064016104d9565b60408101516000546001600160401b0391821691611d599161010090041662093a80612905565b6001600160401b03161115611db05760405162461bcd60e51b815260206004820152601b60248201527f214572723a20646561646c696e654461746520746f2073686f7274000000000060448201526064016104d9565b80518051611dc6916004916020909101906121e4565b506020808201518051611ddd9260059201906121e4565b506060810151600680546040909301516001600160401b031667ffffffffffffffff196001600160801b03909316600160401b02929092166001600160c01b031990931692909217179055565b60ff808216600090815260076020526040812060020154909116611e5057506001919050565b60ff8216600090815260076020526040902060020154630100000081046001600160401b031661010090910461ffff161115611e8e57506001919050565b506000919050565b919050565b6040516001600160a01b03808516602483015283166044820152606481018290526109129085906323b872dd60e01b90608401611a1b565b6000611f28826040518060400160405280602081526020017f5361666545524332303a206c6f772d6c6576656c2063616c6c206661696c6564815250856001600160a01b0316611fa59092919063ffffffff16565b80519091501561108d5780806020019051810190611f46919061244a565b61108d5760405162461bcd60e51b815260206004820152602a60248201527f5361666545524332303a204552433230206f7065726174696f6e20646964206e6044820152691bdd081cdd58d8d9595960b21b60648201526084016104d9565b6060611fb48484600085611fbe565b90505b9392505050565b60608247101561201f5760405162461bcd60e51b815260206004820152602660248201527f416464726573733a20696e73756666696369656e742062616c616e636520666f6044820152651c8818d85b1b60d21b60648201526084016104d9565b843b61206d5760405162461bcd60e51b815260206004820152601d60248201527f416464726573733a2063616c6c20746f206e6f6e2d636f6e747261637400000060448201526064016104d9565b600080866001600160a01b031685876040516120899190612693565b60006040518083038185875af1925050503d80600081146120c6576040519150601f19603f3d011682016040523d82523d6000602084013e6120cb565b606091505b50915091506120db8282866120e6565b979650505050505050565b606083156120f5575081611fb7565b8251156121055782518084602001fd5b8160405162461bcd60e51b81526004016104d991906126c3565b82805461212b90612a43565b90600052602060002090601f01602090048101928261214d576000855561219a565b82601f1061215e578054855561219a565b8280016001018555821561219a57600052602060002091601f016020900482015b8281111561219a57825482559160010191906001019061217f565b506121a6929150612258565b5090565b5080546121b690612a43565b6000825580601f106121c6575050565b601f0160209004906000526020600020908101906105259190612258565b8280546121f090612a43565b90600052602060002090601f016020900481019282612212576000855561219a565b82601f1061222b57805160ff191683800117855561219a565b8280016001018555821561219a579182015b8281111561219a57825182559160200191906001019061223d565b5b808211156121a65760008155600101612259565b80356001600160a01b0381168114611e9657600080fd5b8035611e9681612ae0565b600082601f8301126122a057600080fd5b81356001600160401b03808211156122ba576122ba612aca565b604051601f8301601f19908116603f011681019082821181831017156122e2576122e2612aca565b816040528381528660208588010111156122fb57600080fd5b836020870160208301376000602085830101528094505050505092915050565b600060e0828403121561232d57600080fd5b612335612890565b905081356001600160401b038082111561234e57600080fd5b61235a8583860161228f565b8352602084013591508082111561237057600080fd5b5061237d8482850161228f565b60208301525061238f60408301612284565b60408201526123a0606083016123f5565b60608201526123b160808301612407565b60808201526123c260a083016123de565b60a08201526123d360c083016123de565b60c082015292915050565b80356001600160801b0381168114611e9657600080fd5b803561ffff81168114611e9657600080fd5b80356001600160401b0381168114611e9657600080fd5b803560ff81168114611e9657600080fd5b60006020828403121561244157600080fd5b611fb78261226d565b60006020828403121561245c57600080fd5b8151611fb781612ae0565b60006020828403121561247957600080fd5b81356001600160401b038082111561249057600080fd5b90830190608082860312156124a457600080fd5b6124ac6128b8565b8235828111156124bb57600080fd5b6124c78782860161228f565b8252506020830135828111156124dc57600080fd5b6124e88782860161228f565b6020830152506124fa60408401612407565b604082015261250b606084016123de565b606082015295945050505050565b60006020828403121561252b57600080fd5b81356001600160401b0381111561254157600080fd5b61254d8482850161231b565b949350505050565b6000806040838503121561256857600080fd5b82356001600160401b0381111561257e57600080fd5b61258a8582860161231b565b9250506125996020840161241e565b90509250929050565b6000602082840312156125b457600080fd5b611fb7826123de565b600080604083850312156125d057600080fd5b6125d9836123de565b91506125996020840161241e565b6000602082840312156125f957600080fd5b5051919050565b60006020828403121561261257600080fd5b611fb78261241e565b6000806040838503121561262e57600080fd5b6126378361241e565b91506125996020840161226d565b6006811061266357634e487b7160e01b600052602160045260246000fd5b9052565b6000815180845261267f8160208601602086016129fa565b601f01601f19169290920160200192915050565b600082516126a58184602087016129fa565b9190910192915050565b602081016126bd8284612645565b92915050565b602081526000611fb76020830184612667565b60e0815260006126e960e083018a612667565b82810360208401526126fb818a612667565b9715156040840152505061ffff9490941660608501526001600160401b039290921660808401526001600160801b0390811660a08401521660c09091015292915050565b6020808252600f908201526e08539bdd08105d5d1a1bdc9a5e9959608a1b604082015260600190565b6020808252601c908201527f21457272203a2057726f6e6720776f726b666c6f772073746174757300000000604082015260600190565b60208082526016908201527508515c9c8e8810d85b5c185a59db8811195b195d195960521b604082015260600190565b60c0815260008751608060c08401526127ec610140840182612667565b9050602089015160bf198483030160e08501526128098282612667565b60408b01516001600160401b031661010086015260608b01516001600160801b0316610120860152925061284b91505060208301886001600160401b03169052565b6001600160a01b03861660408301526128676060830186612645565b6001600160801b03841660808301526001600160a01b03831660a0830152979650505050505050565b60405160e081016001600160401b03811182821017156128b2576128b2612aca565b60405290565b604051608081016001600160401b03811182821017156128b2576128b2612aca565b60006001600160801b038083168185168083038211156128fc576128fc612a9e565b01949350505050565b60006001600160401b038083168185168083038211156128fc576128fc612a9e565b600060ff821660ff84168060ff0382111561294457612944612a9e565b019392505050565b60006001600160801b038084168061297457634e487b7160e01b600052601260045260246000fd5b92169190910492915050565b60006001600160801b03808316818516818304811182151516156129a6576129a6612a9e565b02949350505050565b60006001600160401b03838116908316818110156129cf576129cf612a9e565b039392505050565b600060ff821660ff8416808210156129f1576129f1612a9e565b90039392505050565b60005b83811015612a155781810151838201526020016129fd565b838111156109125750506000910152565b600060ff821680612a3957612a39612a9e565b6000190192915050565b600181811c90821680612a5757607f821691505b60208210811415612a7857634e487b7160e01b600052602260045260246000fd5b50919050565b600060ff821660ff811415612a9557612a95612a9e565b60010192915050565b634e487b7160e01b600052601160045260246000fd5b634e487b7160e01b600052602160045260246000fd5b634e487b7160e01b600052604160045260246000fd5b801515811461052557600080fdfea264697066735822122073875761fdd83b674a99cfec08731d3e796cb99da2097c27d12fe6c6e3181b8864736f6c63430008060033",
  "immutableReferences": {
    "16": [
      {
        "length": 32,
        "start": 500
      },
      {
        "length": 32,
        "start": 1267
      },
      {
        "length": 32,
        "start": 1754
      },
      {
        "length": 32,
        "start": 2775
      },
      {
        "length": 32,
        "start": 4764
      },
      {
        "length": 32,
        "start": 6509
      }
    ],
    "30": [
      {
        "length": 32,
        "start": 1066
      },
      {
        "length": 32,
        "start": 1682
      }
    ]
  },
  "source": "// SPDX-License-Identifier: GPL-3.0\r\npragma solidity ^0.8.6;\r\n\r\nimport \"./interfaces/ICampaign.sol\";\r\nimport \"./interfaces/ICampaignFactory.sol\";\r\nimport \"./interfaces/IProposal.sol\";\r\nimport '@openzeppelin/contracts/token/ERC20/IERC20.sol';\r\nimport \"@openzeppelin/contracts/token/ERC20/utils/SafeERC20.sol\";\r\n\r\n/**\r\n* @title Campaign\r\n* @notice The Campaign contract handle the all life for one campaign\r\n* @dev Inherit of for the Campaign Interface\r\n*/\r\ncontract Campaign is ICampaign {\r\n    using SafeERC20 for IERC20;\r\n    \r\n    IERC20 public immutable usdcToken;\r\n\r\n    uint8 public rewardsCounter;\r\n    uint64 public createAt;\r\n    uint128 public totalRaised;\r\n\r\n    address public manager;\r\n    address public factory;\r\n    address public proposal;\r\n    address public immutable escrowContract;\r\n\r\n    WorkflowStatus public status;\r\n\r\n    Info private campaignInfo;\r\n\r\n    mapping(uint8 => Rewards) public rewardsList;\r\n    mapping(uint8 => mapping(address => uint8)) public rewardToContributor;\r\n    mapping(address => uint128) public contributorBalances;\r\n\r\n    //Modifiers\r\n    modifier isNotDeleted(){\r\n        require(status != WorkflowStatus.CampaignDeleted, \"!Err: Campaign Deleted\");\r\n        _;\r\n    }\r\n\r\n    modifier onlyManager(){\r\n        require(msg.sender == manager, \"!Not Authorized\");\r\n        _;\r\n    }\r\n\r\n    modifier checkStatus(\r\n        WorkflowStatus _currentStatus,\r\n        WorkflowStatus _requiredStatus\r\n    ) {\r\n        require(_currentStatus == _requiredStatus, \"!Err : Wrong workflow status\");\r\n        _;\r\n    }\r\n    \r\n    modifier checkCampaignDeadline() {\r\n        require(block.timestamp <  campaignInfo.deadlineDate, \"!Err : Campaign contribution has ended\");\r\n        _;\r\n    }\r\n\r\n    constructor(Info memory _infoData, Rewards[] memory _rewardsData, address _manager, IERC20 _usdcToken, address _escrowContract, address _factory)\r\n    {\r\n        require(_rewardsData.length > 0, \"!Err: Rewards empty\");\r\n        require(_rewardsData.length <= 10, \"!Err: Too much Rewards\");\r\n        manager = _manager;\r\n        factory = _factory;\r\n        createAt = uint64(block.timestamp);\r\n        status = WorkflowStatus.CampaignDrafted;\r\n        usdcToken = _usdcToken;\r\n        escrowContract = _escrowContract;\r\n        _setCampaignInfo(_infoData);\r\n        uint8 _rewardsCounter;\r\n        for (_rewardsCounter; _rewardsCounter < _rewardsData.length; _rewardsCounter++) {\r\n            _setCampaignReward(_rewardsCounter, _rewardsData[_rewardsCounter]);\r\n        }\r\n        rewardsCounter = uint8(_rewardsData.length) ;\r\n    }\r\n\r\n    /**\r\n     * @inheritdoc ICampaign\r\n     */\r\n    function getCampaignInfo() external view override isNotDeleted() returns(Info memory, uint64, address, WorkflowStatus, uint128, address) {\r\n        return (campaignInfo, createAt, manager, status, totalRaised, proposal);\r\n    }\r\n\r\n    /**\r\n     * @inheritdoc ICampaign\r\n     */\r\n    function updateCampaign(Info memory _newInfo) external override isNotDeleted() onlyManager() checkStatus(status, WorkflowStatus.CampaignDrafted) {\r\n        _setCampaignInfo(_newInfo);\r\n    }\r\n\r\n    /**\r\n     * @inheritdoc ICampaign\r\n     */\r\n    function addReward(Rewards memory newRewardData) external override isNotDeleted() onlyManager() checkStatus(status, WorkflowStatus.CampaignDrafted) {\r\n        _setCampaignReward(rewardsCounter, newRewardData);\r\n        rewardsCounter++;\r\n    }\r\n\r\n    /**\r\n     * @inheritdoc ICampaign\r\n     */\r\n    function updateReward(Rewards memory _newRewardData, uint8 _rewardIndex) external override isNotDeleted() onlyManager() checkStatus(status, WorkflowStatus.CampaignDrafted) {\r\n        require(_rewardIndex <= rewardsCounter, \"!Err: Index not exist\");\r\n        _setCampaignReward(_rewardIndex, _newRewardData);\r\n    }\r\n\r\n    /**\r\n    * @notice Internal function that set a new campaign's info and making data validation first.\r\n    * @param _data The Info Object that contains the Info data which follow the Info struct\r\n    */\r\n    function _setCampaignInfo(Info memory _data) private {\r\n        require(bytes(_data.title).length > 0, \"!Err: Title empty\");\r\n        require(bytes(_data.description).length > 0, \"!Err: Description empty\");\r\n        require(_data.fundingGoal >= 1000*10**6, \"!Err: Funding Goal not enough\");\r\n        require(createAt + 7 days <= _data.deadlineDate, \"!Err: deadlineDate to short\");\r\n        campaignInfo.title = _data.title;\r\n        campaignInfo.description = _data.description;\r\n        campaignInfo.fundingGoal = _data.fundingGoal;\r\n        campaignInfo.deadlineDate = _data.deadlineDate;\r\n    }\r\n\r\n    /**\r\n     * @notice Internal function that set a new campaign's reward level and making data validation first.\r\n     * @param _index The reward's index to add\r\n     * @param _data The Rewards Object that contains the Reward data which follow the Rewards struct\r\n     */\r\n    function _setCampaignReward(uint8 _index, Rewards memory _data) private {\r\n        require(bytes(_data.title).length > 0, \"!Err: Title empty\");\r\n        require(bytes(_data.description).length > 0, \"!Err: Description empty\");\r\n        Rewards memory r;\r\n        r.title = _data.title;\r\n        r.description = _data.description;\r\n        r.minimumContribution = _data.minimumContribution;\r\n        r.stockLimit = _data.stockLimit;\r\n        r.nbContributors = _data.nbContributors;\r\n        r.isStockLimited = _data.isStockLimited;\r\n        rewardsList[_index] = r;\r\n    }\r\n\r\n    /**\r\n     * @inheritdoc ICampaign\r\n     */\r\n    function deleteCampaign() public override isNotDeleted() onlyManager() {\r\n        require(status == WorkflowStatus.CampaignDrafted || status == WorkflowStatus.FundingFailed || status == WorkflowStatus.CampaignCompleted, \"!Err : Wrong workflow status\");\r\n        status = WorkflowStatus.CampaignDeleted;\r\n        ICampaignFactory(factory).deleteCampaign();\r\n    }\r\n\r\n    /**\r\n     * @inheritdoc ICampaign\r\n     */\r\n    function deleteReward(uint8 _rewardIndex) external override isNotDeleted() onlyManager() checkStatus(status, WorkflowStatus.CampaignDrafted) {\r\n        require(_rewardIndex < rewardsCounter, \"!Err: Index not exist\");\r\n        if((rewardsCounter-1)!=_rewardIndex){\r\n            rewardsList[_rewardIndex] = rewardsList[rewardsCounter-1];\r\n        }\r\n        delete rewardsList[rewardsCounter-1];\r\n        rewardsCounter--;\r\n    }\r\n\r\n    /**\r\n     * @inheritdoc ICampaign\r\n     */\r\n    function updateManager(address _newManager) external override onlyManager() {\r\n        manager = _newManager;\r\n    }\r\n\r\n    /**\r\n     * @inheritdoc ICampaign\r\n     */\r\n    function publishCampaign() external override isNotDeleted() onlyManager() checkStatus(status, WorkflowStatus.CampaignDrafted) {\r\n        uint minDate = campaignInfo.deadlineDate - 7 days;\r\n        require(minDate >= block.timestamp, \"!Err: deadlineDate to short\");\r\n        status = WorkflowStatus.CampaignPublished;\r\n    }\r\n    \r\n    /**\r\n     * @inheritdoc ICampaign\r\n     */\r\n    function contribute(uint128 _amount, uint8 _rewardIndex) external override isNotDeleted() checkCampaignDeadline() {\r\n        require(status != WorkflowStatus.CampaignDrafted && status != WorkflowStatus.FundingFailed && status != WorkflowStatus.CampaignCompleted, \"!Err : Wrong workflow status\");\r\n        require(_amount >= rewardsList[_rewardIndex].minimumContribution, \"!Err: amount not enough\");\r\n        require(checkRewardInventory(_rewardIndex), \"!Err: no more reward\");\r\n        usdcToken.safeTransferFrom(msg.sender, address(this), _amount);\r\n        contributorBalances[msg.sender] = contributorBalances[msg.sender] + _amount;\r\n        rewardToContributor[_rewardIndex][msg.sender] = rewardToContributor[_rewardIndex][msg.sender] + 1;\r\n        rewardsList[_rewardIndex].nbContributors = rewardsList[_rewardIndex].nbContributors + 1;\r\n        rewardsList[_rewardIndex].amount = rewardsList[_rewardIndex].amount + _amount;\r\n        if(_campaignUSDCBalance() >= campaignInfo.fundingGoal) {\r\n            status = WorkflowStatus.FundingComplete;\r\n        }\r\n    }\r\n\r\n    /**\r\n     * @inheritdoc ICampaign\r\n     */\r\n    function refund() external override {\r\n        require(block.timestamp > campaignInfo.deadlineDate && _campaignUSDCBalance() > 0, \"!Err: conditions not met\");\r\n        require(status == WorkflowStatus.CampaignPublished || status == WorkflowStatus.FundingFailed, \"!Err: wrong workflowstatus\");\r\n        if (status == WorkflowStatus.CampaignPublished) {\r\n            status = WorkflowStatus.FundingFailed;\r\n        }\r\n        uint128 _balance = contributorBalances[msg.sender];\r\n        delete contributorBalances[msg.sender];\r\n        usdcToken.safeTransfer(msg.sender, _balance);\r\n    }\r\n\r\n    /**\r\n     * @inheritdoc ICampaign\r\n     */\r\n    function launchProposalContract() external override onlyManager() isNotDeleted() checkStatus(status, WorkflowStatus.FundingComplete) {\r\n        require(proposal == address(0), \"!Err: proposal already deployed\");\r\n        require(block.timestamp > campaignInfo.deadlineDate, \"!Err: campaign deadline not passed\");\r\n        usdcToken.safeTransfer(escrowContract, _campaignUSDCBalance()*5/100);\r\n        totalRaised = _campaignUSDCBalance();\r\n        ICampaignFactory(factory).deployProposalContract(manager);\r\n    }\r\n\r\n    /**\r\n     * @inheritdoc ICampaign\r\n     */\r\n    function setProposal(address _proposalContract) external override {\r\n        require(msg.sender == factory, \"!Not Authorized\");\r\n        proposal = _proposalContract;\r\n    } \r\n\r\n    /**\r\n     * @inheritdoc ICampaign\r\n     */\r\n    function releaseProposalFunds(uint128 _amount) external override {\r\n        require(msg.sender == proposal, \"!Err: Access denied\");\r\n        usdcToken.safeTransfer(manager, _amount);\r\n    }\r\n\r\n    /**\r\n     * @inheritdoc ICampaign\r\n     */\r\n    function getContractUSDCBalance() external override view returns(uint128) {\r\n        return _campaignUSDCBalance();\r\n    }\r\n\r\n    /**\r\n     * @notice Internal function that return the amount in USDC raised by the campaign\r\n     * @dev Note that USDC using 6 decimals instead of 18\r\n     * @return balance The current balance of the current contract\r\n     */\r\n    function _campaignUSDCBalance() private view returns(uint128){\r\n        return uint128(usdcToken.balanceOf(address(this)));\r\n    }\r\n\r\n    /**\r\n     * @notice Return true if reward inventory > 0 and false if = 0\r\n     * @dev If the reward if not limited the function return true\r\n     * @param _rewardIndex The reward's index to check\r\n     * @return bool The return of the check\r\n     */\r\n    function checkRewardInventory(uint8 _rewardIndex) internal view returns (bool) {\r\n        if (!rewardsList[_rewardIndex].isStockLimited) {\r\n            return true;\r\n        } else if(rewardsList[_rewardIndex].stockLimit > rewardsList[_rewardIndex].nbContributors) {\r\n            return true;\r\n        } else {\r\n            return false;\r\n        }\r\n    }\r\n\r\n    /**\r\n     * @inheritdoc ICampaign\r\n     */\r\n    function getContributorBalances(address _account) external view override returns(uint128){\r\n        return contributorBalances[_account];\r\n    }\r\n\r\n}\r\n",
  "sourcePath": "A:\\Programing\\Projet_Final\\SparkUp\\contracts\\Campaign.sol",
  "compiler": {
    "name": "solc",
    "version": "0.8.6+commit.11564f7e.Emscripten.clang"
  },
  "schemaVersion": "3.4.1",
  "updatedAt": "2021-08-16T18:46:21.243Z",
  "devdoc": {
    "details": "Inherit of for the Campaign Interface",
    "kind": "dev",
    "methods": {
      "addReward((string,string,bool,uint16,uint64,uint128,uint128))": {
        "details": "Only the manager must be able to call it.",
        "params": {
          "_newRewardData": "The Rewards Object that contains all the needed information which follow the Rewards struct for the campaign"
        }
      },
      "contribute(uint128,uint8)": {
        "details": "Can only be called if campaign is published, is not completed, is not deleted and is not failed.",
        "params": {
          "_amount": "The Amount in USDC that msg.sender want to contribute",
          "_rewardIndex": "The reward's index"
        }
      },
      "deleteCampaign()": {
        "details": "It's the entry point for deleting a campaign. Only the manager must be able to call it"
      },
      "deleteReward(uint8)": {
        "details": "Only the manager must be able to call it.",
        "params": {
          "_rewardIndex": "The reward's index to delete"
        }
      },
      "getCampaignInfo()": {
        "returns": {
          "_0": "Info The campaign Info data set",
          "_1": "createAt The campaign creation date in timestamps",
          "_2": "manager The address of the campaign manager",
          "_3": "WorkflowStatus The workflow status of the campaign",
          "_4": "totalRaised The amount raised by the campaign in USDC",
          "_5": "proposalAddress The address of the proposal contract link to the campaign"
        }
      },
      "getContractUSDCBalance()": {
        "details": "Note that USDC using 6 decimals instead of 18",
        "returns": {
          "_0": "balance The current balance of the current contract"
        }
      },
      "getContributorBalances(address)": {
        "params": {
          "_account": "The contributor's address"
        },
        "returns": {
          "_0": "Amount The Amount contributed by the _account"
        }
      },
      "launchProposalContract()": {
        "details": "Can only be called by manager and if WorkflowStatus is FundingComplete."
      },
      "publishCampaign()": {
        "details": "Only the manager must be able to call it and only within acceptable deadlineDate timeframe."
      },
      "refund()": {
        "details": "Can only be called if campaign deadline is passed and fundingGoal not reached."
      },
      "releaseProposalFunds(uint128)": {
        "details": "Can only be called by proposal contract when proposal is accepted.",
        "params": {
          "_amount": "The Amount of funding raised that must be transfer to the manager"
        }
      },
      "setProposal(address)": {
        "details": "Can only be called by campaign factory contract.",
        "params": {
          "_proposalContract": "The proposal contract's address"
        }
      },
      "updateCampaign((string,string,uint64,uint128))": {
        "details": "Only the manager must be able to call it.",
        "params": {
          "_updatedInfoData": "is The Info Object that contains all the new information following the Info struct for the campaign"
        }
      },
      "updateManager(address)": {
        "details": "Only the manager must be able to call it.",
        "params": {
          "_newManager": "The new manager's address"
        }
      },
      "updateReward((string,string,bool,uint16,uint64,uint128,uint128),uint8)": {
        "details": "Only the manager must be able to call it.",
        "params": {
          "_newRewardData": "The rewards Object that contains the new data to set which follow the Rewards struct for the campaign",
          "_rewardIndex": "The reward's index to update"
        }
      }
    },
    "title": "Campaign",
    "version": 1
  },
  "userdoc": {
    "kind": "user",
    "methods": {
      "addReward((string,string,bool,uint16,uint64,uint128,uint128))": {
        "notice": "Add a new reward level to the campaign."
      },
      "contribute(uint128,uint8)": {
        "notice": "Allow contributors to contribute to the campaign."
      },
      "deleteCampaign()": {
        "notice": "Delete the campaign."
      },
      "deleteReward(uint8)": {
        "notice": "Delete a reward by its Id."
      },
      "getCampaignInfo()": {
        "notice": "Returns the campaign information in the struct Info plus de createAt and the managerAddress."
      },
      "getContractUSDCBalance()": {
        "notice": "Make _campaignUSDCBalance available to external and used by Interface"
      },
      "getContributorBalances(address)": {
        "notice": "Return the contribution balance in usdc for a specific address"
      },
      "launchProposalContract()": {
        "notice": "Allows manager to deploy proposal contract to start submitting proposals."
      },
      "publishCampaign()": {
        "notice": "Allow the manager to publish campaign and make it visible to potential contributors."
      },
      "refund()": {
        "notice": "Allow contributor to get refunded."
      },
      "releaseProposalFunds(uint128)": {
        "notice": "Transfer unlocked funds to manager address."
      },
      "setProposal(address)": {
        "notice": "Allows campaign factory contract to set proposal contract address."
      },
      "updateCampaign((string,string,uint64,uint128))": {
        "notice": "Update the campaign information in the struct Info."
      },
      "updateManager(address)": {
        "notice": "Allow the manager to setup a new one."
      },
      "updateReward((string,string,bool,uint16,uint64,uint128,uint128),uint8)": {
        "notice": "Update the data of a specific reward regarding its id."
      }
    },
    "notice": "The Campaign contract handle the all life for one campaign",
    "version": 1
  }
}