{
  "contractName": "Proposal",
  "abi": [
    {
      "inputs": [
        {
          "internalType": "address",
          "name": "_campaignAddress",
          "type": "address"
        },
        {
          "internalType": "address",
          "name": "_manager",
          "type": "address"
        }
      ],
      "stateMutability": "nonpayable",
      "type": "constructor"
    },
    {
      "anonymous": false,
      "inputs": [
        {
          "indexed": false,
          "internalType": "uint256",
          "name": "proposalId",
          "type": "uint256"
        }
      ],
      "name": "proposalCreated",
      "type": "event"
    },
    {
      "inputs": [],
      "name": "availableFunds",
      "outputs": [
        {
          "internalType": "uint128",
          "name": "",
          "type": "uint128"
        }
      ],
      "stateMutability": "view",
      "type": "function"
    },
    {
      "inputs": [],
      "name": "campaignAddress",
      "outputs": [
        {
          "internalType": "address",
          "name": "",
          "type": "address"
        }
      ],
      "stateMutability": "view",
      "type": "function"
    },
    {
      "inputs": [],
      "name": "campaignManager",
      "outputs": [
        {
          "internalType": "address",
          "name": "",
          "type": "address"
        }
      ],
      "stateMutability": "view",
      "type": "function"
    },
    {
      "inputs": [
        {
          "internalType": "uint256",
          "name": "",
          "type": "uint256"
        },
        {
          "internalType": "address",
          "name": "",
          "type": "address"
        }
      ],
      "name": "hasVoted",
      "outputs": [
        {
          "internalType": "bool",
          "name": "",
          "type": "bool"
        }
      ],
      "stateMutability": "view",
      "type": "function"
    },
    {
      "inputs": [],
      "name": "proposalCounter",
      "outputs": [
        {
          "internalType": "uint256",
          "name": "",
          "type": "uint256"
        }
      ],
      "stateMutability": "view",
      "type": "function"
    },
    {
      "inputs": [
        {
          "internalType": "enum IProposal.ProposalType",
          "name": "",
          "type": "uint8"
        }
      ],
      "name": "proposalTypeCounter",
      "outputs": [
        {
          "internalType": "uint256",
          "name": "",
          "type": "uint256"
        }
      ],
      "stateMutability": "view",
      "type": "function"
    },
    {
      "inputs": [
        {
          "internalType": "uint256",
          "name": "",
          "type": "uint256"
        }
      ],
      "name": "proposalsList",
      "outputs": [
        {
          "internalType": "uint256",
          "name": "id",
          "type": "uint256"
        },
        {
          "internalType": "string",
          "name": "title",
          "type": "string"
        },
        {
          "internalType": "string",
          "name": "description",
          "type": "string"
        },
        {
          "internalType": "bool",
          "name": "accepted",
          "type": "bool"
        },
        {
          "internalType": "uint64",
          "name": "deadline",
          "type": "uint64"
        },
        {
          "internalType": "uint128",
          "name": "amount",
          "type": "uint128"
        },
        {
          "internalType": "uint128",
          "name": "okVotes",
          "type": "uint128"
        },
        {
          "internalType": "uint128",
          "name": "nokVotes",
          "type": "uint128"
        },
        {
          "internalType": "enum IProposal.ProposalType",
          "name": "proposalType",
          "type": "uint8"
        },
        {
          "internalType": "enum IProposal.WorkflowStatus",
          "name": "status",
          "type": "uint8"
        }
      ],
      "stateMutability": "view",
      "type": "function"
    },
    {
      "inputs": [
        {
          "internalType": "string",
          "name": "_title",
          "type": "string"
        },
        {
          "internalType": "string",
          "name": "_description",
          "type": "string"
        },
        {
          "internalType": "uint128",
          "name": "_amount",
          "type": "uint128"
        }
      ],
      "name": "createProposal",
      "outputs": [],
      "stateMutability": "nonpayable",
      "type": "function"
    },
    {
      "inputs": [
        {
          "internalType": "uint8",
          "name": "_proposalId",
          "type": "uint8"
        }
      ],
      "name": "deleteProposal",
      "outputs": [],
      "stateMutability": "nonpayable",
      "type": "function"
    },
    {
      "inputs": [
        {
          "internalType": "uint8",
          "name": "_proposalId",
          "type": "uint8"
        }
      ],
      "name": "startVotingSession",
      "outputs": [],
      "stateMutability": "nonpayable",
      "type": "function"
    },
    {
      "inputs": [
        {
          "internalType": "uint8",
          "name": "_proposalId",
          "type": "uint8"
        },
        {
          "internalType": "bool",
          "name": "_vote",
          "type": "bool"
        }
      ],
      "name": "voteProposal",
      "outputs": [],
      "stateMutability": "nonpayable",
      "type": "function"
    },
    {
      "inputs": [
        {
          "internalType": "uint8",
          "name": "_proposalId",
          "type": "uint8"
        }
      ],
      "name": "getResults",
      "outputs": [],
      "stateMutability": "nonpayable",
      "type": "function"
    },
    {
      "inputs": [
        {
          "internalType": "enum IProposal.ProposalType",
          "name": "_proposalType",
          "type": "uint8"
        }
      ],
      "name": "getProposals",
      "outputs": [
        {
          "components": [
            {
              "internalType": "uint256",
              "name": "id",
              "type": "uint256"
            },
            {
              "internalType": "string",
              "name": "title",
              "type": "string"
            },
            {
              "internalType": "string",
              "name": "description",
              "type": "string"
            },
            {
              "internalType": "bool",
              "name": "accepted",
              "type": "bool"
            },
            {
              "internalType": "uint64",
              "name": "deadline",
              "type": "uint64"
            },
            {
              "internalType": "uint128",
              "name": "amount",
              "type": "uint128"
            },
            {
              "internalType": "uint128",
              "name": "okVotes",
              "type": "uint128"
            },
            {
              "internalType": "uint128",
              "name": "nokVotes",
              "type": "uint128"
            },
            {
              "internalType": "enum IProposal.ProposalType",
              "name": "proposalType",
              "type": "uint8"
            },
            {
              "internalType": "enum IProposal.WorkflowStatus",
              "name": "status",
              "type": "uint8"
            }
          ],
          "internalType": "struct IProposal.Proposal[]",
          "name": "",
          "type": "tuple[]"
        }
      ],
      "stateMutability": "view",
      "type": "function"
    }
  ],
  "bytecode": "0x60a06040523480156200001157600080fd5b5060405162001c3938038062001c39833981016040819052620000349162000129565b6001600160601b0319606083901b16608052600480546001600160a01b03199081166001600160a01b038086169182178455600380549186169190931617909155604080516213b96160e11b815290519192622772c2928282019260209290829003018186803b158015620000a857600080fd5b505afa158015620000bd573d6000803e3d6000fd5b505050506040513d601f19601f82011682018060405250810190620000e3919062000161565b600080546001600160801b0319166001600160801b039290921691909117905550620001939050565b80516001600160a01b03811681146200012457600080fd5b919050565b600080604083850312156200013d57600080fd5b62000148836200010c565b915062000158602084016200010c565b90509250929050565b6000602082840312156200017457600080fd5b81516001600160801b03811681146200018c57600080fd5b9392505050565b60805160601c611a87620001b2600039600061010a0152611a876000f3fe608060405234801561001057600080fd5b50600436106100cf5760003560e01c806346fcff4c1161008c578063b1fa087611610066578063b1fa087614610206578063e595702314610226578063fb5e76e61461024f578063fe48e8b11461026257600080fd5b806346fcff4c146101a85780634caae8a0146101d35780635cbd4d05146101f357600080fd5b806305f86040146100d45780630c0512e9146100e957806311765b2714610105578063216869451461014457806334bdcdd714610157578063438596321461016a575b600080fd5b6100e76100e2366004611640565b610275565b005b6100f260015481565b6040519081526020015b60405180910390f35b61012c7f000000000000000000000000000000000000000000000000000000000000000081565b6040516001600160a01b0390911681526020016100fc565b6100e7610152366004611640565b61036a565b6100e7610165366004611640565b61060d565b610198610178366004611604565b600660209081526000928352604080842090915290825290205460ff1681565b60405190151581526020016100fc565b6000546101bb906001600160801b031681565b6040516001600160801b0390911681526020016100fc565b6101e66101e136600461152e565b610704565b6040516100fc91906116fd565b6100e7610201366004611556565b610a34565b6100f261021436600461152e565b60026020526000908152604090205481565b6102396102343660046115eb565b610e9e565b6040516100fc9a99989796959493929190611875565b60035461012c906001600160a01b031681565b6100e761027036600461165b565b611024565b6003546001600160a01b031633146102a85760405162461bcd60e51b815260040161029f9061184a565b60405180910390fd5b60ff811660018060008381526005602081905260409091200154610100900460ff1660038111156102db576102db6119f7565b146102f85760405162461bcd60e51b815260040161029f90611813565b60ff8316600090815260056020819052604090912001805461ff0019166102001790556103284262093a80611934565b60ff9093166000908152600560205260409020600301805467ffffffffffffffff949094166101000268ffffffffffffffff0019909416939093179092555050565b60ff811660028060008381526005602081905260409091200154610100900460ff16600381111561039d5761039d6119f7565b146103ba5760405162461bcd60e51b815260040161029f90611813565b60ff8316600090815260056020526040902060030154610100900467ffffffffffffffff16421161042d5760405162461bcd60e51b815260206004820152601a60248201527f214572723a20566f74696e67207374696c6c206f6e676f696e67000000000000604482015260640161029f565b60ff83166000908152600560208190526040909120908101805461ff001916610300179055600401546001600160801b03600160801b8204811691161115610519576004805460ff851660009081526005602052604090819020600301549051630a2d00d360e01b8152600160481b9091046001600160801b0316928101929092526001600160a01b031690630a2d00d390602401600060405180830381600087803b1580156104dc57600080fd5b505af11580156104f0573d6000803e3d6000fd5b50505060ff84166000908152600560205260409020600301805460ff191660011790555061056f565b60ff8316600090815260056020526040812060030154905461054e916001600160801b03600160481b90910481169116611909565b600080546001600160801b0319166001600160801b03929092169190911790555b60ff83166000908152600560208190526040822001805460ff19166001908117909155600291905b60028111156105a8576105a86119f7565b815260200190815260200160002060008154809291906105c7906119c6565b9091555050600080805260026020527fac33ff75c19e70fe83507db0d683fd3465c996598dc972688b7ace676c89077b80549161060383611974565b9190505550505050565b6003546001600160a01b031633146106375760405162461bcd60e51b815260040161029f9061184a565b60ff811660018060008381526005602081905260409091200154610100900460ff16600381111561066a5761066a6119f7565b146106875760405162461bcd60e51b815260040161029f90611813565b60ff831660009081526005602052604081206003015490546106bc916001600160801b03600160481b90910481169116611909565b600080546001600160801b0319166001600160801b039290921691909117815560ff841681526005602081905260408220018054600260ff1990911681179091559081610597565b606060006002600084600281111561071e5761071e6119f7565b600281111561072f5761072f6119f7565b81526020019081526020016000205467ffffffffffffffff81111561075657610756611a23565b60405190808252806020026020018201604052801561078f57816020015b61077c61139e565b8152602001906001900390816107745790505b5090506000805b600154811015610a2b578460028111156107b2576107b26119f7565b6000828152600560208190526040909120015460ff1660028111156107d9576107d96119f7565b1415610a19576005600082815260200190815260200160002060405180610140016040529081600082015481526020016001820180546108189061198b565b80601f01602080910402602001604051908101604052809291908181526020018280546108449061198b565b80156108915780601f1061086657610100808354040283529160200191610891565b820191906000526020600020905b81548152906001019060200180831161087457829003601f168201915b505050505081526020016002820180546108aa9061198b565b80601f01602080910402602001604051908101604052809291908181526020018280546108d69061198b565b80156109235780601f106108f857610100808354040283529160200191610923565b820191906000526020600020905b81548152906001019060200180831161090657829003601f168201915b5050509183525050600382015460ff80821615156020840152610100820467ffffffffffffffff166040840152600160481b9091046001600160801b03908116606084015260048401548082166080850152600160801b90041660a0830152600583015460c09092019116600281111561099f5761099f6119f7565b60028111156109b0576109b06119f7565b81526020016005820160019054906101000a900460ff1660038111156109d8576109d86119f7565b60038111156109e9576109e96119f7565b815250508383815181106109ff576109ff611a0d565b60200260200101819052508180610a15906119c6565b9250505b80610a23816119c6565b915050610796565b50909392505050565b6003546001600160a01b03163314610a5e5760405162461bcd60e51b815260040161029f9061184a565b60015460008060008381526005602081905260409091200154610100900460ff166003811115610a9057610a906119f7565b14610aad5760405162461bcd60e51b815260040161029f90611813565b600560015410610b105760405162461bcd60e51b815260206004820152602860248201527f214572723a204d6178696d756d20616d6f756e74206f662070726f706f73616c604482015267081c995858da195960c21b606482015260840161029f565b6000855111610b555760405162461bcd60e51b8152602060048201526011602482015270214572723a205469746c6520656d70747960781b604482015260640161029f565b6000845111610ba65760405162461bcd60e51b815260206004820152601760248201527f214572723a204465736372697074696f6e20656d707479000000000000000000604482015260640161029f565b6000836001600160801b031611610bf65760405162461bcd60e51b8152602060048201526014602482015273214572723a20416d6f756e7420746f6f206c6f7760601b604482015260640161029f565b6000546001600160801b039081169084161115610c715760405162461bcd60e51b815260206004820152603360248201527f214572723a2050726f706f73616c20616d6f756e7420657863656564732063616044820152726d706169676e20555344432062616c616e636560681b606482015260840161029f565b610c7961139e565b60018054808352602080840189815260408086018a90526001600160801b03891660a0870152610120860185905260009384526005835290922084518155915180518594610ccc939085019201906113f2565b5060408201518051610ce89160028401916020909101906113f2565b506060820151600382018054608085015160a086015168ffffffffffffffffff1990921693151568ffffffffffffffff0019169390931761010067ffffffffffffffff90941684021778ffffffffffffffffffffffffffffffff0000000000000000001916600160481b6001600160801b03928316021790915560c084015160e0850151908216600160801b919092160217600483015582015160058201805460ff19166001836002811115610da057610da06119f7565b021790555061012082015160058201805461ff001916610100836003811115610dcb57610dcb6119f7565b021790555050600080805260026020527fac33ff75c19e70fe83507db0d683fd3465c996598dc972688b7ace676c89077b8054925090610e0a836119c6565b91905055507f1fc8f2a696a1eb2860eaa6ee37c3ae6f7f4998983cb8232dbecc5a3c3f3fb1d5600154604051610e4291815260200190565b60405180910390a160018054906000610e5a836119c6565b9091555050600054610e769085906001600160801b031661194c565b600080546001600160801b0319166001600160801b0392909216919091179055505050505050565b60056020526000908152604090208054600182018054919291610ec09061198b565b80601f0160208091040260200160405190810160405280929190818152602001828054610eec9061198b565b8015610f395780601f10610f0e57610100808354040283529160200191610f39565b820191906000526020600020905b815481529060010190602001808311610f1c57829003601f168201915b505050505090806002018054610f4e9061198b565b80601f0160208091040260200160405190810160405280929190818152602001828054610f7a9061198b565b8015610fc75780601f10610f9c57610100808354040283529160200191610fc7565b820191906000526020600020905b815481529060010190602001808311610faa57829003601f168201915b5050505060038301546004840154600590940154929360ff8083169461010080850467ffffffffffffffff169550600160481b9094046001600160801b039081169481851694600160801b9004909116928083169291909104168a565b60ff821660028060008381526005602081905260409091200154610100900460ff166003811115611057576110576119f7565b146110745760405162461bcd60e51b815260040161029f90611813565b60ff8416600081815260056020526040902060030154610100900467ffffffffffffffff1642106110e75760405162461bcd60e51b815260206004820152601f60248201527f214572723a2070726f706f73616c20766f74696e672068617320656e64656400604482015260640161029f565b6004805460405163fc436cd560e01b815233928101929092526000916001600160a01b039091169063fc436cd59060240160206040518083038186803b15801561113057600080fd5b505afa158015611144573d6000803e3d6000fd5b505050506040513d601f19601f8201168201806040525081019061116891906115ce565b6001600160801b0316116111be5760405162461bcd60e51b815260206004820152601760248201527f214572723a206e6f74206120636f6e7472696275746f72000000000000000000604482015260640161029f565b60ff808616600090815260066020908152604080832033845290915290205416156112215760405162461bcd60e51b815260206004820152601360248201527208515c9c8e88105b1c9958591e481d9bdd1959606a1b604482015260640161029f565b6004805460405163fc436cd560e01b815233928101929092526000916001600160a01b039091169063fc436cd59060240160206040518083038186803b15801561126a57600080fd5b505afa15801561127e573d6000803e3d6000fd5b505050506040513d601f19601f820116820180604052508101906112a291906115ce565b9050841561130c5760ff86166000908152600560205260409020600401546112d49082906001600160801b0316611909565b60ff8716600090815260056020526040902060040180546001600160801b0319166001600160801b039290921691909117905561136e565b60ff861660009081526005602052604090206004015461133d908290600160801b90046001600160801b0316611909565b60ff8716600090815260056020526040902060040180546001600160801b03928316600160801b0292169190911790555b50505060ff90921660009081526006602090815260408083203384529091529020805460ff191660011790555050565b604080516101408101825260008082526060602083018190529282018390529181018290526080810182905260a0810182905260c0810182905260e081018290529061010082019081526020016000905290565b8280546113fe9061198b565b90600052602060002090601f0160209004810192826114205760008555611466565b82601f1061143957805160ff1916838001178555611466565b82800160010185558215611466579182015b8281111561146657825182559160200191906001019061144b565b50611472929150611476565b5090565b5b808211156114725760008155600101611477565b600082601f83011261149c57600080fd5b813567ffffffffffffffff808211156114b7576114b7611a23565b604051601f8301601f19908116603f011681019082821181831017156114df576114df611a23565b816040528381528660208588010111156114f857600080fd5b836020870160208301376000602085830101528094505050505092915050565b803560ff8116811461152957600080fd5b919050565b60006020828403121561154057600080fd5b81356003811061154f57600080fd5b9392505050565b60008060006060848603121561156b57600080fd5b833567ffffffffffffffff8082111561158357600080fd5b61158f8783880161148b565b945060208601359150808211156115a557600080fd5b506115b28682870161148b565b92505060408401356115c381611a39565b809150509250925092565b6000602082840312156115e057600080fd5b815161154f81611a39565b6000602082840312156115fd57600080fd5b5035919050565b6000806040838503121561161757600080fd5b8235915060208301356001600160a01b038116811461163557600080fd5b809150509250929050565b60006020828403121561165257600080fd5b61154f82611518565b6000806040838503121561166e57600080fd5b61167783611518565b91506020830135801515811461163557600080fd5b6003811061169c5761169c6119f7565b9052565b6004811061169c5761169c6119f7565b6000815180845260005b818110156116d6576020818501810151868301820152016116ba565b818111156116e8576000602083870101525b50601f01601f19169290920160200192915050565b60006020808301818452808551808352604092508286019150828160051b87010184880160005b8381101561180557603f1989840301855281516101408151855288820151818a870152611753828701826116b0565b915050878201518582038987015261176b82826116b0565b9150506060808301516117818288018215159052565b505060808281015167ffffffffffffffff169086015260a0808301516001600160801b039081169187019190915260c08084015182169087015260e08084015190911690860152610100808301516117db8288018261168c565b505061012091820151916117f1868201846116a0565b509588019593505090860190600101611724565b509098975050505050505050565b6020808252601c908201527f21457272203a2057726f6e6720776f726b666c6f772073746174757300000000604082015260600190565b60208082526011908201527010a2b9391d103737ba1036b0b730b3b2b960791b604082015260600190565b60006101408c835280602084015261188f8184018d6116b0565b905082810360408401526118a3818c6116b0565b8a1515606085015267ffffffffffffffff8a1660808501526001600160801b0389811660a086015288811660c0860152871660e085015291506118ec905061010083018561168c565b6118fa6101208301846116a0565b9b9a5050505050505050505050565b60006001600160801b0380831681851680830382111561192b5761192b6119e1565b01949350505050565b60008219821115611947576119476119e1565b500190565b60006001600160801b038381169083168181101561196c5761196c6119e1565b039392505050565b600081611983576119836119e1565b506000190190565b600181811c9082168061199f57607f821691505b602082108114156119c057634e487b7160e01b600052602260045260246000fd5b50919050565b60006000198214156119da576119da6119e1565b5060010190565b634e487b7160e01b600052601160045260246000fd5b634e487b7160e01b600052602160045260246000fd5b634e487b7160e01b600052603260045260246000fd5b634e487b7160e01b600052604160045260246000fd5b6001600160801b0381168114611a4e57600080fd5b5056fea26469706673582212207743eb0c423743387bf173345d04d4f867416c98bb2a88ea2165e35ad835932864736f6c63430008060033",
  "immutableReferences": {
    "1412": [
      {
        "length": 32,
        "start": 266
      }
    ]
  },
  "source": "// SPDX-License-Identifier: GPL-3.0\r\npragma solidity ^0.8.6;\r\n\r\nimport './interfaces/IProposal.sol';\r\nimport './interfaces/ICampaign.sol';\r\n\r\ncontract Proposal is IProposal {\r\n\r\n    uint128 public availableFunds;\r\n    uint256 public proposalCounter;\r\n    mapping(ProposalType => uint256) public proposalTypeCounter;\r\n    address public immutable campaignAddress;\r\n    address public campaignManager;\r\n\r\n    ICampaign campaignContract;\r\n\r\n    mapping(uint => Proposal) public proposalsList;\r\n    mapping(uint => mapping(address => bool)) public hasVoted;\r\n\r\n    event proposalCreated(uint256 proposalId);\r\n\r\n    constructor(address _campaignAddress, address _manager) {\r\n        campaignAddress = _campaignAddress;\r\n        campaignContract = ICampaign(_campaignAddress);\r\n        campaignManager = _manager;\r\n        availableFunds = ICampaign(_campaignAddress).getContractUSDCBalance();\r\n    }\r\n\r\n    modifier isContributor() {\r\n        require(campaignContract.getContributorBalances(msg.sender) > 0, \"!Err: not a contributor\");\r\n        _;\r\n    }\r\n\r\n    modifier checkStatus(\r\n        uint256 _proposalId,\r\n        WorkflowStatus _requiredStatus\r\n    ) {\r\n        require(proposalsList[_proposalId].status == _requiredStatus, \"!Err : Wrong workflow status\");\r\n        _;\r\n    }\r\n\r\n    modifier onlyManager() {\r\n        require(msg.sender == campaignManager, \"!Err: not manager\");\r\n        _;\r\n    }\r\n\r\n    modifier checkProposalDeadline(uint256 _proposalId) {\r\n        require(block.timestamp < proposalsList[_proposalId].deadline, \"!Err: proposal voting has ended\");\r\n        _;\r\n    }\r\n\r\n    /**\r\n     * @inheritdoc IProposal\r\n     */\r\n    function createProposal(string memory _title, string memory _description, uint128 _amount) external override onlyManager() checkStatus(proposalCounter, WorkflowStatus.Pending) {\r\n        require(proposalCounter < 5, \"!Err: Maximum amount of proposal reached\");\r\n        require(bytes(_title).length > 0, \"!Err: Title empty\");\r\n        require(bytes(_description).length > 0, \"!Err: Description empty\");\r\n        require(_amount > 0, \"!Err: Amount too low\");\r\n        require(_amount <= availableFunds, \"!Err: Proposal amount exceeds campaign USDC balance\");\r\n        Proposal memory p;\r\n        p.id = proposalCounter;\r\n        p.title = _title;\r\n        p.description = _description;\r\n        p.amount = _amount;\r\n        p.status = WorkflowStatus.Registered;\r\n        proposalsList[proposalCounter] = p;\r\n        proposalTypeCounter[ProposalType.Active]++;\r\n        emit proposalCreated(proposalCounter);\r\n        proposalCounter++;\r\n        availableFunds = availableFunds - _amount;\r\n    }\r\n\r\n    /**\r\n     * @inheritdoc IProposal\r\n     */\r\n    function deleteProposal(uint8 _proposalId) external override onlyManager() checkStatus(_proposalId, WorkflowStatus.Registered) {\r\n        availableFunds = availableFunds + proposalsList[_proposalId].amount;\r\n        proposalsList[_proposalId].proposalType = ProposalType.Deleted;\r\n        proposalTypeCounter[ProposalType.Deleted]++;\r\n        proposalTypeCounter[ProposalType.Active]--;\r\n    }\r\n\r\n    /**\r\n     * @inheritdoc IProposal\r\n     */\r\n    function startVotingSession(uint8 _proposalId) external override onlyManager() checkStatus(_proposalId, WorkflowStatus.Registered) {\r\n        proposalsList[_proposalId].status = WorkflowStatus.VotingSessionStarted;\r\n        proposalsList[_proposalId].deadline = uint64(block.timestamp + 7 days);\r\n    }\r\n\r\n    /**\r\n     * @inheritdoc IProposal\r\n     */\r\n    function voteProposal(uint8 _proposalId, bool _vote) external override checkStatus(_proposalId, WorkflowStatus.VotingSessionStarted) checkProposalDeadline(_proposalId) isContributor() {\r\n        require(!hasVoted[_proposalId][msg.sender], \"!Err: Already voted\");\r\n        uint128 contributorVotes = campaignContract.getContributorBalances(msg.sender);\r\n        if (_vote) {\r\n            proposalsList[_proposalId].okVotes = proposalsList[_proposalId].okVotes + contributorVotes;\r\n        } else {\r\n            proposalsList[_proposalId].nokVotes = proposalsList[_proposalId].nokVotes + contributorVotes;\r\n        }\r\n        hasVoted[_proposalId][msg.sender] = true;\r\n    }\r\n\r\n    /**\r\n     * @inheritdoc IProposal\r\n     */\r\n    function getResults(uint8 _proposalId) external override checkStatus(_proposalId, WorkflowStatus.VotingSessionStarted) {\r\n        require(block.timestamp > proposalsList[_proposalId].deadline, \"!Err: Voting still ongoing\");\r\n        proposalsList[_proposalId].status = WorkflowStatus.VotesTallied;\r\n        if (proposalsList[_proposalId].okVotes > proposalsList[_proposalId].nokVotes) {\r\n            campaignContract.releaseProposalFunds(proposalsList[_proposalId].amount);\r\n            proposalsList[_proposalId].accepted = true;\r\n        }else{\r\n            availableFunds = availableFunds + proposalsList[_proposalId].amount;\r\n        }\r\n        proposalsList[_proposalId].proposalType=ProposalType.Archived;\r\n        proposalTypeCounter[ProposalType.Archived]++;\r\n        proposalTypeCounter[ProposalType.Active]--;\r\n    }\r\n\r\n    /**\r\n     * @inheritdoc IProposal\r\n     */\r\n    function getProposals(ProposalType _proposalType) external view override returns(Proposal[] memory){\r\n        Proposal[] memory listOfProposals = new Proposal[](proposalTypeCounter[_proposalType]);\r\n        uint256 j;\r\n        for(uint256 i=0;i<proposalCounter;i++){\r\n            if(proposalsList[i].proposalType==_proposalType){\r\n                listOfProposals[j]=proposalsList[i];\r\n                j++;\r\n            }\r\n        }\r\n        return listOfProposals;\r\n    } \r\n} \r\n",
  "sourcePath": "A:\\Programing\\Projet_Final\\SparkUp\\contracts\\Proposal.sol",
  "compiler": {
    "name": "solc",
    "version": "0.8.6+commit.11564f7e.Emscripten.clang"
  },
  "schemaVersion": "3.4.1",
  "updatedAt": "2021-08-16T18:46:21.272Z",
  "devdoc": {
    "kind": "dev",
    "methods": {
      "createProposal(string,string,uint128)": {
        "details": "can only be called by campaign manager and if WorkflowStatus is Pending",
        "params": {
          "_amount": "The amount to be unlocked for spending",
          "_description": "The proposal description",
          "_title": "The proposal title"
        }
      },
      "deleteProposal(uint8)": {
        "details": "can only be called by campaign manager and if WorkflowStatus is Registered",
        "params": {
          "_proposalId": "The proposal's index inside the proposalList array"
        }
      },
      "getProposals(uint8)": {
        "params": {
          "_proposalStatus": "The proposalType (active, archived or deleted)"
        },
        "returns": {
          "_0": "Array The list of Proposals corresponding to the _proposalStatus"
        }
      },
      "getResults(uint8)": {
        "details": "can only be called only if proposal deadline is passed",
        "params": {
          "_proposalId": "The proposal's index inside the proposalList array"
        }
      },
      "startVotingSession(uint8)": {
        "details": "can only be called by campaign manager and if WorkflowStatus is Registered",
        "params": {
          "_proposalId": "The proposal's index inside the proposalList array"
        }
      },
      "voteProposal(uint8,bool)": {
        "details": "can only be called by contributors and if WorkflowStatus is VotingSessionStarted",
        "params": {
          "_proposalId": "The proposal's index inside the proposalList array",
          "_vote": "As 1 for ok and 0 for nok"
        }
      }
    },
    "version": 1
  },
  "userdoc": {
    "kind": "user",
    "methods": {
      "createProposal(string,string,uint128)": {
        "notice": "Create a new proposal"
      },
      "deleteProposal(uint8)": {
        "notice": "Delete proposal"
      },
      "getProposals(uint8)": {
        "notice": "return list of proposal matching proposalType of param"
      },
      "getResults(uint8)": {
        "notice": "check if proposal is ok or nok"
      },
      "startVotingSession(uint8)": {
        "notice": "start proposal voting process"
      },
      "voteProposal(uint8,bool)": {
        "notice": "enable contributors to vote for or against proposal"
      }
    },
    "version": 1
  }
}